{
  "contractName": "FinVaultInvestor",
  "abi": [
    {
      "inputs": [
        {
          "internalType": "address",
          "name": "_usdcToken",
          "type": "address"
        },
        {
          "internalType": "contract ILendingPoolAddressesProvider",
          "name": "_liquidityPoolProviderAave",
          "type": "address"
        },
        {
          "internalType": "address",
          "name": "_cUsdc",
          "type": "address"
        }
      ],
      "stateMutability": "nonpayable",
      "type": "constructor"
    },
    {
      "anonymous": false,
      "inputs": [
        {
          "indexed": false,
          "internalType": "string",
          "name": "",
          "type": "string"
        },
        {
          "indexed": false,
          "internalType": "uint256",
          "name": "",
          "type": "uint256"
        }
      ],
      "name": "LogTransaction",
      "type": "event"
    },
    {
      "anonymous": false,
      "inputs": [
        {
          "indexed": true,
          "internalType": "address",
          "name": "previousOwner",
          "type": "address"
        },
        {
          "indexed": true,
          "internalType": "address",
          "name": "newOwner",
          "type": "address"
        }
      ],
      "name": "OwnershipTransferred",
      "type": "event"
    },
    {
      "anonymous": false,
      "inputs": [
        {
          "indexed": false,
          "internalType": "address",
          "name": "from",
          "type": "address"
        },
        {
          "indexed": false,
          "internalType": "address",
          "name": "to",
          "type": "address"
        },
        {
          "indexed": false,
          "internalType": "uint256",
          "name": "amount",
          "type": "uint256"
        }
      ],
      "name": "Transfer",
      "type": "event"
    },
    {
      "inputs": [
        {
          "internalType": "address",
          "name": "",
          "type": "address"
        }
      ],
      "name": "balances",
      "outputs": [
        {
          "internalType": "uint256",
          "name": "",
          "type": "uint256"
        }
      ],
      "stateMutability": "view",
      "type": "function"
    },
    {
      "inputs": [],
      "name": "owner",
      "outputs": [
        {
          "internalType": "address",
          "name": "",
          "type": "address"
        }
      ],
      "stateMutability": "view",
      "type": "function"
    },
    {
      "inputs": [],
      "name": "renounceOwnership",
      "outputs": [],
      "stateMutability": "nonpayable",
      "type": "function"
    },
    {
      "inputs": [],
      "name": "totalInvestment",
      "outputs": [
        {
          "internalType": "uint256",
          "name": "",
          "type": "uint256"
        }
      ],
      "stateMutability": "view",
      "type": "function"
    },
    {
      "inputs": [],
      "name": "totalInvestmentSumAave",
      "outputs": [
        {
          "internalType": "uint256",
          "name": "",
          "type": "uint256"
        }
      ],
      "stateMutability": "view",
      "type": "function"
    },
    {
      "inputs": [],
      "name": "totalInvestmentSumComp",
      "outputs": [
        {
          "internalType": "uint256",
          "name": "",
          "type": "uint256"
        }
      ],
      "stateMutability": "view",
      "type": "function"
    },
    {
      "inputs": [
        {
          "internalType": "address",
          "name": "newOwner",
          "type": "address"
        }
      ],
      "name": "transferOwnership",
      "outputs": [],
      "stateMutability": "nonpayable",
      "type": "function"
    },
    {
      "stateMutability": "payable",
      "type": "receive"
    },
    {
      "inputs": [
        {
          "internalType": "uint256",
          "name": "amount",
          "type": "uint256"
        }
      ],
      "name": "stakeFunds",
      "outputs": [],
      "stateMutability": "payable",
      "type": "function"
    },
    {
      "inputs": [
        {
          "internalType": "uint256",
          "name": "amount",
          "type": "uint256"
        }
      ],
      "name": "compareInterestRate",
      "outputs": [
        {
          "internalType": "address",
          "name": "",
          "type": "address"
        }
      ],
      "stateMutability": "nonpayable",
      "type": "function"
    },
    {
      "inputs": [
        {
          "internalType": "uint256",
          "name": "amount",
          "type": "uint256"
        }
      ],
      "name": "redeemFundsFromContract",
      "outputs": [],
      "stateMutability": "payable",
      "type": "function"
    },
    {
      "inputs": [
        {
          "internalType": "uint256",
          "name": "amount",
          "type": "uint256"
        }
      ],
      "name": "stakeAave",
      "outputs": [],
      "stateMutability": "nonpayable",
      "type": "function"
    },
    {
      "inputs": [
        {
          "internalType": "address",
          "name": "_erc20Contract",
          "type": "address"
        },
        {
          "internalType": "address",
          "name": "_cErc20Contract",
          "type": "address"
        },
        {
          "internalType": "uint256",
          "name": "_numTokensToSupply",
          "type": "uint256"
        }
      ],
      "name": "supplyUSDCToCompound",
      "outputs": [
        {
          "internalType": "uint256",
          "name": "",
          "type": "uint256"
        }
      ],
      "stateMutability": "nonpayable",
      "type": "function"
    },
    {
      "inputs": [
        {
          "internalType": "uint256",
          "name": "amount",
          "type": "uint256"
        }
      ],
      "name": "investErc20Token",
      "outputs": [],
      "stateMutability": "nonpayable",
      "type": "function"
    },
    {
      "inputs": [
        {
          "internalType": "uint256",
          "name": "amount",
          "type": "uint256"
        },
        {
          "internalType": "address",
          "name": "erc20Token",
          "type": "address"
        }
      ],
      "name": "investERC20Token",
      "outputs": [],
      "stateMutability": "nonpayable",
      "type": "function"
    }
  ],
  "bytecode": "0x60806040523480156200001157600080fd5b5060405162001e3f38038062001e3f83398181016040528101906200003791906200029e565b620000576200004b6200012360201b60201c565b6200012b60201b60201c565b82600560006101000a81548173ffffffffffffffffffffffffffffffffffffffff021916908373ffffffffffffffffffffffffffffffffffffffff16021790555081600660006101000a81548173ffffffffffffffffffffffffffffffffffffffff021916908373ffffffffffffffffffffffffffffffffffffffff16021790555080600860006101000a81548173ffffffffffffffffffffffffffffffffffffffff021916908373ffffffffffffffffffffffffffffffffffffffff160217905550505050620002fa565b600033905090565b60008060009054906101000a900473ffffffffffffffffffffffffffffffffffffffff169050816000806101000a81548173ffffffffffffffffffffffffffffffffffffffff021916908373ffffffffffffffffffffffffffffffffffffffff1602179055508173ffffffffffffffffffffffffffffffffffffffff168173ffffffffffffffffffffffffffffffffffffffff167f8be0079c531659141344cd1fd0a4f28419497f9722a3daafe3b4186f6b6457e060405160405180910390a35050565b600080fd5b600073ffffffffffffffffffffffffffffffffffffffff82169050919050565b60006200022182620001f4565b9050919050565b620002338162000214565b81146200023f57600080fd5b50565b600081519050620002538162000228565b92915050565b6000620002668262000214565b9050919050565b620002788162000259565b81146200028457600080fd5b50565b60008151905062000298816200026d565b92915050565b600080600060608486031215620002ba57620002b9620001ef565b5b6000620002ca8682870162000242565b9350506020620002dd8682870162000287565b9250506040620002f08682870162000242565b9150509250925092565b611b35806200030a6000396000f3fe6080604052600436106100e15760003560e01c80636f08b44d1161007f5780638da5cb5b116100595780638da5cb5b146102a8578063df5a05c5146102d3578063f2fde38b146102fe578063ffd8d61114610327576100e8565b80636f08b44d1461022b578063715018a6146102685780637c139b581461027f576100e8565b806327e235e3116100bb57806327e235e31461017e57806336e58dab146101bb57806355dc43d2146101d75780636b65397014610200576100e8565b806308686075146100ed57806310a81f511461011657806310ea13df14610153576100e8565b366100e857005b600080fd5b3480156100f957600080fd5b50610114600480360381019061010f9190611309565b610343565b005b34801561012257600080fd5b5061013d60048036038101906101389190611349565b610423565b60405161014a91906113ab565b60405180910390f35b34801561015f57600080fd5b50610168610694565b60405161017591906113ab565b60405180910390f35b34801561018a57600080fd5b506101a560048036038101906101a091906113c6565b61069a565b6040516101b291906113ab565b60405180910390f35b6101d560048036038101906101d091906113f3565b6106b2565b005b3480156101e357600080fd5b506101fe60048036038101906101f991906113f3565b61088c565b005b34801561020c57600080fd5b50610215610979565b60405161022291906113ab565b60405180910390f35b34801561023757600080fd5b50610252600480360381019061024d91906113f3565b61097f565b60405161025f919061142f565b60405180910390f35b34801561027457600080fd5b5061027d610a57565b005b34801561028b57600080fd5b506102a660048036038101906102a191906113f3565b610adf565b005b3480156102b457600080fd5b506102bd610c0c565b6040516102ca919061142f565b60405180910390f35b3480156102df57600080fd5b506102e8610c35565b6040516102f591906113ab565b60405180910390f35b34801561030a57600080fd5b50610325600480360381019061032091906113c6565b610c3b565b005b610341600480360381019061033c91906113f3565b610d33565b005b600660009054906101000a900473ffffffffffffffffffffffffffffffffffffffff1673ffffffffffffffffffffffffffffffffffffffff16630261bf8b6040518163ffffffff1660e01b8152600401602060405180830381865afa1580156103b0573d6000803e3d6000fd5b505050506040513d601f19601f820116820180604052508101906103d4919061145f565b73ffffffffffffffffffffffffffffffffffffffff168173ffffffffffffffffffffffffffffffffffffffff1614156104155761041082610f44565b61041f565b61041e82610f47565b5b5050565b600080849050600084905060008173ffffffffffffffffffffffffffffffffffffffff1663bd6d894d6040518163ffffffff1660e01b81526004016020604051808303816000875af115801561047d573d6000803e3d6000fd5b505050506040513d601f19601f820116820180604052508101906104a191906114a1565b90507fb207d51a3d3a614295d20b519684a522771aaeda055af6f196242ceb7cc5cc2a816040516104d2919061152b565b60405180910390a160008273ffffffffffffffffffffffffffffffffffffffff1663ae9d70b06040518163ffffffff1660e01b81526004016020604051808303816000875af1158015610529573d6000803e3d6000fd5b505050506040513d601f19601f8201168201806040525081019061054d91906114a1565b90507fb207d51a3d3a614295d20b519684a522771aaeda055af6f196242ceb7cc5cc2a8160405161057e91906115a5565b60405180910390a18373ffffffffffffffffffffffffffffffffffffffff1663095ea7b388886040518363ffffffff1660e01b81526004016105c19291906115d3565b6020604051808303816000875af11580156105e0573d6000803e3d6000fd5b505050506040513d601f19601f820116820180604052508101906106049190611634565b5060008373ffffffffffffffffffffffffffffffffffffffff1663a0712d68886040518263ffffffff1660e01b815260040161064091906113ab565b6020604051808303816000875af115801561065f573d6000803e3d6000fd5b505050506040513d601f19601f8201168201806040525081019061068391906114a1565b905080955050505050509392505050565b60025481565b60016020528060005260406000206000915090505481565b600081116106f5576040517f08c379a00000000000000000000000000000000000000000000000000000000081526004016106ec906116ad565b60405180910390fd5b6000600560009054906101000a900473ffffffffffffffffffffffffffffffffffffffff16905061073182600254610f8690919063ffffffff16565b60028190555061078982600160003373ffffffffffffffffffffffffffffffffffffffff1673ffffffffffffffffffffffffffffffffffffffff16815260200190815260200160002054610f8690919063ffffffff16565b600160003373ffffffffffffffffffffffffffffffffffffffff1673ffffffffffffffffffffffffffffffffffffffff168152602001908152602001600020819055508073ffffffffffffffffffffffffffffffffffffffff166323b872dd3330856040518463ffffffff1660e01b8152600401610809939291906116cd565b6020604051808303816000875af1158015610828573d6000803e3d6000fd5b505050506040513d601f19601f8201168201806040525081019061084c9190611634565b507fddf252ad1be2c89b69c2b068fc378daa952ba7f163c4a11628f55a4df523b3ef333084604051610880939291906116cd565b60405180910390a15050565b60006108978261097f565b9050600660009054906101000a900473ffffffffffffffffffffffffffffffffffffffff1673ffffffffffffffffffffffffffffffffffffffff16630261bf8b6040518163ffffffff1660e01b8152600401602060405180830381865afa158015610906573d6000803e3d6000fd5b505050506040513d601f19601f8201168201806040525081019061092a919061145f565b73ffffffffffffffffffffffffffffffffffffffff168173ffffffffffffffffffffffffffffffffffffffff16141561096b5761096682610adf565b610975565b61097482610f9c565b5b5050565b60035481565b60008060009050600080821115610a2a57600660009054906101000a900473ffffffffffffffffffffffffffffffffffffffff1673ffffffffffffffffffffffffffffffffffffffff16630261bf8b6040518163ffffffff1660e01b8152600401602060405180830381865afa1580156109fd573d6000803e3d6000fd5b505050506040513d601f19601f82011682018060405250810190610a21919061145f565b92505050610a52565b600860009054906101000a900473ffffffffffffffffffffffffffffffffffffffff16925050505b919050565b610a5f611033565b73ffffffffffffffffffffffffffffffffffffffff16610a7d610c0c565b73ffffffffffffffffffffffffffffffffffffffff1614610ad3576040517f08c379a0000000000000000000000000000000000000000000000000000000008152600401610aca90611750565b60405180910390fd5b610add600061103b565b565b6000600660009054906101000a900473ffffffffffffffffffffffffffffffffffffffff1673ffffffffffffffffffffffffffffffffffffffff16630261bf8b6040518163ffffffff1660e01b8152600401602060405180830381865afa158015610b4e573d6000803e3d6000fd5b505050506040513d601f19601f82011682018060405250810190610b72919061145f565b90508073ffffffffffffffffffffffffffffffffffffffff1663e8eda9df600560009054906101000a900473ffffffffffffffffffffffffffffffffffffffff16843060006040518563ffffffff1660e01b8152600401610bd694939291906117c3565b600060405180830381600087803b158015610bf057600080fd5b505af1158015610c04573d6000803e3d6000fd5b505050505050565b60008060009054906101000a900473ffffffffffffffffffffffffffffffffffffffff16905090565b60045481565b610c43611033565b73ffffffffffffffffffffffffffffffffffffffff16610c61610c0c565b73ffffffffffffffffffffffffffffffffffffffff1614610cb7576040517f08c379a0000000000000000000000000000000000000000000000000000000008152600401610cae90611750565b60405180910390fd5b600073ffffffffffffffffffffffffffffffffffffffff168173ffffffffffffffffffffffffffffffffffffffff161415610d27576040517f08c379a0000000000000000000000000000000000000000000000000000000008152600401610d1e9061187a565b60405180910390fd5b610d308161103b565b50565b80600160003373ffffffffffffffffffffffffffffffffffffffff1673ffffffffffffffffffffffffffffffffffffffff168152602001908152602001600020541015610db5576040517f08c379a0000000000000000000000000000000000000000000000000000000008152600401610dac906118e6565b60405180910390fd5b610dca816002546110ff90919063ffffffff16565b600281905550610e2281600160003373ffffffffffffffffffffffffffffffffffffffff1673ffffffffffffffffffffffffffffffffffffffff168152602001908152602001600020546110ff90919063ffffffff16565b600160003373ffffffffffffffffffffffffffffffffffffffff1673ffffffffffffffffffffffffffffffffffffffff16815260200190815260200160002081905550600560009054906101000a900473ffffffffffffffffffffffffffffffffffffffff1673ffffffffffffffffffffffffffffffffffffffff1663a9059cbb33836040518363ffffffff1660e01b8152600401610ec29291906115d3565b6020604051808303816000875af1158015610ee1573d6000803e3d6000fd5b505050506040513d601f19601f82011682018060405250810190610f059190611634565b507fddf252ad1be2c89b69c2b068fc378daa952ba7f163c4a11628f55a4df523b3ef333083604051610f39939291906116cd565b60405180910390a150565b50565b6000610f77826001600860009054906101000a900473ffffffffffffffffffffffffffffffffffffffff16611115565b9050610f8282610d33565b5050565b60008183610f949190611935565b905092915050565b610fa5816106b2565b6000610ff6600560009054906101000a900473ffffffffffffffffffffffffffffffffffffffff16600860009054906101000a900473ffffffffffffffffffffffffffffffffffffffff1684610423565b90507fb207d51a3d3a614295d20b519684a522771aaeda055af6f196242ceb7cc5cc2a8160405161102791906119fd565b60405180910390a15050565b600033905090565b60008060009054906101000a900473ffffffffffffffffffffffffffffffffffffffff169050816000806101000a81548173ffffffffffffffffffffffffffffffffffffffff021916908373ffffffffffffffffffffffffffffffffffffffff1602179055508173ffffffffffffffffffffffffffffffffffffffff168173ffffffffffffffffffffffffffffffffffffffff167f8be0079c531659141344cd1fd0a4f28419497f9722a3daafe3b4186f6b6457e060405160405180910390a35050565b6000818361110d9190611a2b565b905092915050565b60008082905060006001151585151514156111ad578173ffffffffffffffffffffffffffffffffffffffff1663db006a75876040518263ffffffff1660e01b815260040161116391906113ab565b6020604051808303816000875af1158015611182573d6000803e3d6000fd5b505050506040513d601f19601f820116820180604052508101906111a691906114a1565b905061122c565b8173ffffffffffffffffffffffffffffffffffffffff1663852a12e3876040518263ffffffff1660e01b81526004016111e691906113ab565b6020604051808303816000875af1158015611205573d6000803e3d6000fd5b505050506040513d601f19601f8201168201806040525081019061122991906114a1565b90505b7fb207d51a3d3a614295d20b519684a522771aaeda055af6f196242ceb7cc5cc2a8160405161125b9190611ad1565b60405180910390a16001925050509392505050565b600080fd5b6000819050919050565b61128881611275565b811461129357600080fd5b50565b6000813590506112a58161127f565b92915050565b600073ffffffffffffffffffffffffffffffffffffffff82169050919050565b60006112d6826112ab565b9050919050565b6112e6816112cb565b81146112f157600080fd5b50565b600081359050611303816112dd565b92915050565b600080604083850312156113205761131f611270565b5b600061132e85828601611296565b925050602061133f858286016112f4565b9150509250929050565b60008060006060848603121561136257611361611270565b5b6000611370868287016112f4565b9350506020611381868287016112f4565b925050604061139286828701611296565b9150509250925092565b6113a581611275565b82525050565b60006020820190506113c0600083018461139c565b92915050565b6000602082840312156113dc576113db611270565b5b60006113ea848285016112f4565b91505092915050565b60006020828403121561140957611408611270565b5b600061141784828501611296565b91505092915050565b611429816112cb565b82525050565b60006020820190506114446000830184611420565b92915050565b600081519050611459816112dd565b92915050565b60006020828403121561147557611474611270565b5b60006114838482850161144a565b91505092915050565b60008151905061149b8161127f565b92915050565b6000602082840312156114b7576114b6611270565b5b60006114c58482850161148c565b91505092915050565b600082825260208201905092915050565b7f45786368616e6765205261746520287363616c6564207570293a200000000000600082015250565b6000611515601b836114ce565b9150611520826114df565b602082019050919050565b6000604082019050818103600083015261154481611508565b9050611553602083018461139c565b92915050565b7f537570706c7920526174653a20287363616c6564207570290000000000000000600082015250565b600061158f6018836114ce565b915061159a82611559565b602082019050919050565b600060408201905081810360008301526115be81611582565b90506115cd602083018461139c565b92915050565b60006040820190506115e86000830185611420565b6115f5602083018461139c565b9392505050565b60008115159050919050565b611611816115fc565b811461161c57600080fd5b50565b60008151905061162e81611608565b92915050565b60006020828403121561164a57611649611270565b5b60006116588482850161161f565b91505092915050565b7f616d6f756e742063616e6e6f7420626520300000000000000000000000000000600082015250565b60006116976012836114ce565b91506116a282611661565b602082019050919050565b600060208201905081810360008301526116c68161168a565b9050919050565b60006060820190506116e26000830186611420565b6116ef6020830185611420565b6116fc604083018461139c565b949350505050565b7f4f776e61626c653a2063616c6c6572206973206e6f7420746865206f776e6572600082015250565b600061173a6020836114ce565b915061174582611704565b602082019050919050565b600060208201905081810360008301526117698161172d565b9050919050565b6000819050919050565b600061ffff82169050919050565b6000819050919050565b60006117ad6117a86117a384611770565b611788565b61177a565b9050919050565b6117bd81611792565b82525050565b60006080820190506117d86000830187611420565b6117e5602083018661139c565b6117f26040830185611420565b6117ff60608301846117b4565b95945050505050565b7f4f776e61626c653a206e6577206f776e657220697320746865207a65726f206160008201527f6464726573730000000000000000000000000000000000000000000000000000602082015250565b60006118646026836114ce565b915061186f82611808565b604082019050919050565b6000602082019050818103600083015261189381611857565b9050919050565b7f496e73756666696369656e742062616c616e6365000000000000000000000000600082015250565b60006118d06014836114ce565b91506118db8261189a565b602082019050919050565b600060208201905081810360008301526118ff816118c3565b9050919050565b7f4e487b7100000000000000000000000000000000000000000000000000000000600052601160045260246000fd5b600061194082611275565b915061194b83611275565b9250827fffffffffffffffffffffffffffffffffffffffffffffffffffffffffffffffff038211156119805761197f611906565b5b828201905092915050565b7f416d6f756e7420737570706c69656420746f206355534443207375636365737360008201527f66756c6c00000000000000000000000000000000000000000000000000000000602082015250565b60006119e76024836114ce565b91506119f28261198b565b604082019050919050565b60006040820190508181036000830152611a16816119da565b9050611a25602083018461139c565b92915050565b6000611a3682611275565b9150611a4183611275565b925082821015611a5457611a53611906565b5b828203905092915050565b7f49662074686973206973206e6f7420302c2074686572652077617320616e206560008201527f72726f7200000000000000000000000000000000000000000000000000000000602082015250565b6000611abb6024836114ce565b9150611ac682611a5f565b604082019050919050565b60006040820190508181036000830152611aea81611aae565b9050611af9602083018461139c565b9291505056fea2646970667358221220bea2315db0bfc095a12c61525fc201bf4d2e228a6964ed6d326b3e64e31d097264736f6c634300080a0033",
  "immutableReferences": {},
  "source": "// SPDX-License-Identifier: MIT\npragma solidity ^0.8.2;\n\nimport \"@openzeppelin/contracts/access/Ownable.sol\";\nimport \"@openzeppelin/contracts/token/ERC20/IERC20.sol\";\nimport \"@openzeppelin/contracts/utils/math/SafeMath.sol\";\nimport \"./aave/ILendingPoolAddressesProvider.sol\";\nimport \"./aave/ILendingPool.sol\";\nimport \"./comp/cERC20.sol\";\n\n// A contract that accepts USDC from users and extends the Ownable contract \ncontract FinVaultInvestor is Ownable {\n    using SafeMath for uint;\n\n    // User balances\n    mapping(address=>uint) public balances;\n\n    // Total investment sum\n    uint public totalInvestment;\n\n    uint public totalInvestmentSumAave;\n\n    uint public totalInvestmentSumComp;\n\n    //Acceptable token contract\n    // 0x07865c6E87B9F70255377e024ace6630C1Eaa37F - Goerli\n    address usdcToken;\n\n    // Events\n    // Transfer successful Event\n    event Transfer(address from, address to, uint amount);\n\n    // Log transaction message and status (1 => Success, other code for failure).\n    event LogTransaction(string, uint256);\n\n    //AAVE Liquidy provider\n    ILendingPoolAddressesProvider liquidityPoolProviderAave;\n\n    // FakeUSDC 0x2dB6a31f973Ec26F5e17895f0741BB5965d5Ae15 \n    // aUSDC 0xBcca60bB61934080951369a648Fb03DF4F96263C;\n    // Get faucet from https://testnet.aave.com/faucet\n    IERC20 aToken; \n\n    //0xcec4a43ebb02f9b80916f1c718338169d6d5c1f0 - Goerli\n    //0x2973e69b20563bcc66dc63bde153072c33ef37fe - Ropsten\n    //0x851dEf71f0e6A903375C1e536Bd9ff1684BAD802 - aave usdc ropsten\n    address cUsdc; \n\n\n    // Create the contract with the _acceptableTokenAddress - USDC: contract 0x822D11AEF505e781c5669109922AC570189A5fb3\n    // @param liquidityPoolAave as the AAVE Ilending provider, which allows the contract to have access to the current lending pool contract. \n    // Lending pool provider 0xB53C1a33016B2DC2fF3653530bfF1848a515c8c5\n    // Lending pool contract 0x7d2768dE32b0b80b7a3454c06BdAc94A69DDc7A9\n    // @param liquidityPoolComp as the COMP contract: \n    constructor(address _usdcToken, ILendingPoolAddressesProvider _liquidityPoolProviderAave, address _cUsdc) {\n        usdcToken = _usdcToken;\n        liquidityPoolProviderAave = _liquidityPoolProviderAave;\n        cUsdc = _cUsdc;\n    }\n\n    // When a user deposits USDC, transfer the usdc to this contract\n    // If transfer is successful, update the userbalance\n    // Update totalInvestmentSum\n    // Check investment pool with the highest interest\n    // Invest in the pool with the highest interest\n    // map user investment information and balances\n    function stakeFunds(uint amount) public payable {\n        require(amount > 0, \"amount cannot be 0\");\n        IERC20 usdc = IERC20(usdcToken);\n        totalInvestment = totalInvestment.add(amount);\n        balances[msg.sender] = balances[msg.sender].add(amount);\n        usdc.transferFrom(msg.sender, address(this), amount);\n        \n        //Emit transfer event\n        emit Transfer(msg.sender, address(this), amount);\n    }\n\n\n   // Compare the interest rates for AAVE and COMP \n    function compareInterestRate(uint amount) public returns(address){\n        // Get AAVE interest rate\n        uint aaveInterestRate = 0; // use the AAVE interestRateContract\n        // Get COMP interest rate\n        uint compInterestRate = 0; // get the interest Rate\n\n        if(aaveInterestRate > compInterestRate){\n            return liquidityPoolProviderAave.getLendingPool();\n        }\n        return cUsdc;\n    }\n    \n\n    // Redeem investment interest and principal from\n    // Transfer to the user\n    function redeemFundsFromContract(uint amount) public payable {\n        //validate balance;\n        require(balances[msg.sender] >= amount, \"Insufficient balance\");\n        totalInvestment = totalInvestment.sub(amount);\n        balances[msg.sender] = balances[msg.sender].sub(amount);\n        IERC20(usdcToken).transfer(msg.sender, amount);\n        \n        //Emit transfer event\n        emit Transfer(msg.sender, address(this), amount);\n    }\n\n    // Stake AAVE \n    function stakeAave(uint amount) public {\n        ILendingPool aavePool = ILendingPool(liquidityPoolProviderAave.getLendingPool());\n        //deposit(address asset, uint256 amount,address onBehalfOf,uint16 referralCode\n        aavePool.deposit(usdcToken, amount, address(this), 0);\n    }\n\n    //supply ERC20 to compound\n    function supplyUSDCToCompound(\n        address _erc20Contract,\n        address _cErc20Contract,\n        uint256 _numTokensToSupply\n    ) public returns (uint) {\n        // Create a reference to the underlying asset contract, like DAI.\n        IERC20 underlying = IERC20(_erc20Contract);\n\n        // Create a reference to the corresponding cToken contract, like cDAI\n        CErc20 cToken = CErc20(_cErc20Contract);\n\n        // Amount of current exchange rate from cToken to underlying\n        uint256 exchangeRateMantissa = cToken.exchangeRateCurrent();\n        emit LogTransaction(\"Exchange Rate (scaled up): \", exchangeRateMantissa);\n\n        // Amount added to you supply balance this block\n        uint256 supplyRateMantissa = cToken.supplyRatePerBlock();\n        emit LogTransaction(\"Supply Rate: (scaled up)\", supplyRateMantissa);\n\n        // Approve transfer on the ERC20 contract\n        underlying.approve(_cErc20Contract, _numTokensToSupply);\n\n        // Mint cTokens\n        uint mintResult = cToken.mint(_numTokensToSupply);\n        return mintResult;\n    }\n\n\n    // Stake USDC to COMP protocol\n    // send funds to this contracts\n    function stakeComp(uint amount) internal {\n        stakeFunds(amount);\n        uint responseCode = supplyUSDCToCompound(usdcToken, cUsdc, amount);\n        emit LogTransaction(\"Amount supplied to cUSDC successfull\", responseCode);\n    }\n\n\n    // https://compound.finance/docs#protocol-math\n    // https://compound.finance/docs/ctokens#error-codes\n    // @return bool\n    function redeemCUsdcTokens(\n        uint256 amount,\n        bool redeemType,\n        address _cErc20Contract\n    ) internal returns (bool) {\n        // Create a reference to the corresponding cToken contract, like cDAI\n        CErc20 cToken = CErc20(_cErc20Contract);\n\n        uint256 redeemResult;\n\n        if (redeemType == true) {\n            // Retrieve your asset based on a cToken amount\n            redeemResult = cToken.redeem(amount);\n        } else {\n            // Retrieve your asset based on an amount of the asset\n            redeemResult = cToken.redeemUnderlying(amount);\n        }\n\n        emit LogTransaction(\"If this is not 0, there was an error\", redeemResult);\n        return true;\n    }\n\n    function redeemComp(uint amount) internal {\n        bool result = redeemCUsdcTokens(amount, true, cUsdc);\n        // Perhaps a check for successful response?\n        redeemFundsFromContract(amount);\n    }\n\n    function redeemAave(uint amount) internal {}\n\n\n    // Check interest rate and invest in the corresponding protocol\n    // Invest in corresponding pool\n    function investErc20Token(uint amount) public {\n        address finalInvestmentDestination = compareInterestRate(amount);\n        if(finalInvestmentDestination==liquidityPoolProviderAave.getLendingPool()){\n            stakeAave(amount);\n        }\n        else{\n            stakeComp(amount);\n        }\n    }\n\n\n    //Redeem investment token + principal\n    //@param amount : amount to reedeem\n    //@param erc20Token: asset to redeem ERC20 token from\n    function investERC20Token(uint amount, address erc20Token) public{\n        if(erc20Token==liquidityPoolProviderAave.getLendingPool()){\n            redeemAave(amount);\n        }\n        else{\n            redeemComp(amount);\n        }\n    }\n\n    receive() external payable{}\n\n}\n",
  "sourcePath": "/Users/adewaleadeleye/projects/solidity/finvault/contracts/FinVaultInvestor.sol",
  "compiler": {
    "name": "solc",
    "version": "0.8.10+commit.fc410830.Emscripten.clang"
  },
  "schemaVersion": "3.4.3",
  "updatedAt": "2021-12-20T22:30:58.102Z",
  "devdoc": {
    "kind": "dev",
    "methods": {
      "owner()": {
        "details": "Returns the address of the current owner."
      },
      "renounceOwnership()": {
        "details": "Leaves the contract without owner. It will not be possible to call `onlyOwner` functions anymore. Can only be called by the current owner. NOTE: Renouncing ownership will leave the contract without an owner, thereby removing any functionality that is only available to the owner."
      },
      "transferOwnership(address)": {
        "details": "Transfers ownership of the contract to a new account (`newOwner`). Can only be called by the current owner."
      }
    },
    "version": 1
  },
  "userdoc": {
    "kind": "user",
    "methods": {},
    "version": 1
  }
}