{
  "contractName": "TestPoolAddress",
  "abi": [
    {
      "inputs": [
        {
          "internalType": "address",
          "name": "_aaveLendingPool",
          "type": "address"
        }
      ],
      "stateMutability": "nonpayable",
      "type": "constructor"
    },
    {
      "inputs": [],
      "name": "aaveLendingPool",
      "outputs": [
        {
          "internalType": "address",
          "name": "",
          "type": "address"
        }
      ],
      "stateMutability": "view",
      "type": "function",
      "constant": true
    },
    {
      "inputs": [],
      "name": "getCurrentLendingPool",
      "outputs": [
        {
          "internalType": "address",
          "name": "",
          "type": "address"
        }
      ],
      "stateMutability": "view",
      "type": "function",
      "constant": true
    }
  ],
  "bytecode": "0x608060405234801561001057600080fd5b5060405161033d38038061033d833981810160405281019061003291906100db565b806000806101000a81548173ffffffffffffffffffffffffffffffffffffffff021916908373ffffffffffffffffffffffffffffffffffffffff16021790555050610108565b600080fd5b600073ffffffffffffffffffffffffffffffffffffffff82169050919050565b60006100a88261007d565b9050919050565b6100b88161009d565b81146100c357600080fd5b50565b6000815190506100d5816100af565b92915050565b6000602082840312156100f1576100f0610078565b5b60006100ff848285016100c6565b91505092915050565b610226806101176000396000f3fe608060405234801561001057600080fd5b50600436106100365760003560e01c8063d006382f1461003b578063e9d337b814610059575b600080fd5b610043610077565b6040516100509190610177565b60405180910390f35b610061610112565b60405161006e9190610177565b60405180910390f35b60008060008054906101000a900473ffffffffffffffffffffffffffffffffffffffff1690508073ffffffffffffffffffffffffffffffffffffffff16630261bf8b6040518163ffffffff1660e01b8152600401602060405180830381865afa1580156100e8573d6000803e3d6000fd5b505050506040513d601f19601f8201168201806040525081019061010c91906101c3565b91505090565b60008054906101000a900473ffffffffffffffffffffffffffffffffffffffff1681565b600073ffffffffffffffffffffffffffffffffffffffff82169050919050565b600061016182610136565b9050919050565b61017181610156565b82525050565b600060208201905061018c6000830184610168565b92915050565b600080fd5b6101a081610156565b81146101ab57600080fd5b50565b6000815190506101bd81610197565b92915050565b6000602082840312156101d9576101d8610192565b5b60006101e7848285016101ae565b9150509291505056fea26469706673582212207263167e30e698b9315ebfe31c559a09430b705ad99ad16a69a8b8c6b26eb96564736f6c634300080a0033",
  "immutableReferences": {},
  "source": "// SPDX-License-Identifier: MIT\npragma solidity >=0.4.22 <0.9.0;\nimport {ILendingPoolAddressesProvider} from './ILendingPoolAddressesProvider.sol';\ncontract TestPoolAddress {\n\n  address public aaveLendingPool ;\n\n  constructor(address _aaveLendingPool) public {\n    aaveLendingPool = _aaveLendingPool;\n  }\n\n  function getCurrentLendingPool() public view returns(address){\n    ILendingPoolAddressesProvider aaveProvider = ILendingPoolAddressesProvider(aaveLendingPool);\n    return aaveProvider.getLendingPool();\n  }\n}\n",
  "sourcePath": "/Users/adewaleadeleye/projects/solidity/finvault/contracts/TestPoolAddress.sol",
  "compiler": {
    "name": "solc",
    "version": "0.8.10+commit.fc410830.Emscripten.clang"
  },
  "schemaVersion": "3.4.3",
  "updatedAt": "2021-12-20T08:29:18.455Z",
  "networkType": "ethereum",
  "devdoc": {
    "kind": "dev",
    "methods": {},
    "version": 1
  },
  "userdoc": {
    "kind": "user",
    "methods": {},
    "version": 1
  }
}